:100000000C945E000C9486000C9486000C94860080
:100010000C9486000C9486000C9486000C94860048
:100020000C9486000C9486000C9486000C94860038
:100030000C9486000C9486000C9486000C94860028
:100040000C94AD040C9486000C9473030C944D0333
:100050000C9486000C9486000C9486000C94860008
:100060000C9486000C948600000000080002010039
:100070000003040700000000000000000000000072
:10008000250028002B0000000000240027002A0083
:10009000040404040404040402020202020203032E
:1000A0000303030301020408102040800102040836
:1000B0001020010204081020F60EE00E11241FBECD
:1000C000CFEFD8E0DEBFCDBF12E0A0E0B1E0E2E9C3
:1000D000F5E202C005900D92A63FB107D9F725E0E1
:1000E000A6EFB2E001C01D92A733B207E1F710E01E
:1000F000CDE5D0E004C02197FE010E94770FCC35FA
:10010000D107C9F70E94B70A0C94BC120C940000E6
:100110000895CF92DF92EF92FF920F931F93CF93A8
:10012000DF936C017A018B01C0E0D0E0CE15DF05D2
:1001300089F0D8016D918D01D601ED91FC9101906E
:10014000F081E02DC6010995892B11F47E0102C0D2
:100150002196ECCFC701DF91CF911F910F91FF90B6
:10016000EF90DF90CF900895FC01918D828D9817CC
:1001700061F0828DDF01A80FB11D5D968C91928D8B
:100180009F5F9F73928F90E008958FEF9FEF089588
:10019000FC01918D828D981731F0828DE80FF11D51
:1001A000858D90E008958FEF9FEF0895FC01918D6C
:1001B000228D892F90E0805C9F4F821B91098F7365
:1001C000992708958AE093E00E94D60021E0892BC8
:1001D00009F420E0822F08950E9474110F931F9359
:1001E000CF93DF93EC0188819981009729F02A81D0
:1001F0003B812617370788F48B016F5F7F4F0E9482
:10020000AA10009761F0998388831B830A832C814D
:100210003D81232B11F4FC01108281E001C080E0BC
:10022000DF91CF911F910F910895EF92FF920F935D
:100230001F93CF93DF93EC0181E0888F9B8D8C8D92
:10024000981305C0E889F989808185FD24C0F62EC0
:100250000B8D10E00F5F1F4F0F731127E02E8C8D59
:10026000E8120CC00FB607FCFACFE889F989808143
:1002700085FFF5CFCE010E944604F1CF8B8DFE01A4
:10028000E80FF11DE35AFF4FF0820B8FEA89FB89DB
:100290008081806207C0EE89FF896083E889F989DF
:1002A00080818064808381E090E0DF91CF911F9115
:1002B0000F91FF90EF900895CF93DF93EC01888D1D
:1002C0008823C9F0EA89FB89808185FD05C0A8895A
:1002D000B9898C9186FD0FC00FB607FCF5CF8081E0
:1002E00085FFF2CFA889B9898C9185FFEDCFCE012A
:1002F0000E944604E7CFDF91CF910895FC0124814D
:100300003581232B31F421E061157105A1F0FB014A
:1003100008C0FC01808191816115710531F421E0F3
:10032000FC018081882339F005C00E94821121E000
:10033000892B09F020E0822F0895EF92FF920F930E
:100340001F93CF93DF93FC012481358161157105E3
:1003500011F480E019C041155105A9F07B01EC01B1
:100360008A01020F131FB8010E94EE00882389F34F
:10037000288139818C819D81B701820F931F0E9452
:100380008B111D830C8381E0DF91CF911F910F9121
:10039000FF90EF9008950F931F93CF93DF938C01FD
:1003A000EB01FC01808191810097B1F06881798136
:1003B0006115710579F0428153812C813D8142178D
:1003C000530740F00E948B118C819D81F801958329
:1003D000848313C00E94121088819981F80191834F
:1003E00080838A819B81938382838C819D81958385
:1003F0008483198218821B821A821D821C82DF91DB
:10040000CF911F910F910895CF93DF93EC018881D5
:100410009981009711F00E941210198218821D8292
:100420001C821B821A82DF91CF910895CF93DF93B4
:10043000EC016115710561F0FB0101900020E9F705
:100440003197AF01461B570B0E949D01811103C0DC
:10045000CE010E940402CE01DF91CF910895CF9387
:10046000DF93EC01FB0144815581608171810E9421
:100470009D01811103C0CE010E940402CE01DF91D3
:10048000CF910895EF92FF920F931F93CF93DF9335
:10049000EC017B018A01BA010E94EE00811104C0C7
:1004A000CE010E94040207C01D830C83B70188811E
:1004B00099810E948B11CE01DF91CF911F910F91F5
:1004C000FF90EF900895CF93DF93EC0161157105D4
:1004D00059F0FB0101900020E9F73197AF01461B6D
:1004E000570B0E94420202C00E940402CE01DF911B
:1004F000CF910895FC01808191810C9412100F938B
:100500001F93CF93DF93CDB7DEB7A1970FB6F894C3
:10051000DEBF0FBECDBF8C01CB01BA01F801118245
:100520001082138212821582148230E0AE014F5F76
:100530005F4F0E94FE11BE016F5F7F4FC8010E9496
:100540006302A1960FB6F894DEBF0FBECDBFDF9158
:10055000CF911F910F9108950F931F93CF93DF9326
:10056000CDB7DEB762970FB6F894DEBF0FBECDBF32
:100570008C01CB01F8011182108213821282158244
:10058000148250E0BE016F5F7F4F0E94D311BE0105
:100590006F5F7F4FC8010E94630262960FB6F894A6
:1005A000DEBF0FBECDBFDF91CF911F910F91089598
:1005B000FB01DC0111961C921E9213961C921E9256
:1005C000129715961C921E9214978617970749F05A
:1005D000608171816115710521F0448155810C9410
:1005E00042020895FC011182108213821282158248
:1005F00014826115710551F0FB0101900020E9F7AB
:100600003197AF01461B570B0C9442020895BF92DD
:10061000CF92DF92EF92FF920F931F93CF93DF93CE
:100620007C016B018A01E9012417350720F4812F31
:100630008901C42FD82F65EF72E0C7010E94F20232
:10064000D60114968D919C91159708171907D0F42F
:100650008C179D0708F4EC01D601ED91FC911197E0
:10066000EC0FFD1FB08010824D915C91BA01600FBC
:10067000711FC7010E946302D601ED91FC91EC0F3E
:10068000FD1FB082C701DF91CF911F910F91FF90A5
:10069000EF90DF90CF90BF9008951F920F920FB60A
:1006A0000F9211242F933F934F935F936F937F93F8
:1006B0008F939F93AF93BF93EF93FF938AE093E061
:1006C0000E944604FF91EF91BF91AF919F918F914E
:1006D0007F916F915F914F913F912F910F900FBE3E
:1006E0000F901F9018951F920F920FB60F92112422
:1006F0002F938F939F93EF93FF93E0911A03F091C1
:100700001B038081E0912003F091210382FD12C040
:100710009081809123038F5F8F7320912403821730
:1007200051F0E0912303F0E0E65FFC4F958F80935A
:10073000230301C08081FF91EF919F918F912F91B1
:100740000F900FBE0F901F90189590E0FC01E85994
:10075000FF4F3491FC01EC55FF4F2491FC01E05711
:10076000FF4FE491EE2309F43BC0332339F13330DA
:1007700091F038F43130A9F0323001F584B58F7D35
:1007800012C0373091F03830A1F03430B9F4809194
:1007900080008F7D03C0809180008F7780938000E0
:1007A0000DC084B58F7784BD09C08091B0008F776C
:1007B00003C08091B0008F7D8093B000F0E0EE0F19
:1007C000FF1FE458FF4FA591B4918FB7F894EC91B7
:1007D000611103C020952E2301C02E2B2C938FBFB7
:1007E00008953FB7F8948091060390910703A09174
:1007F0000803B091090326B5A89B05C02F3F19F047
:100800000196A11DB11D3FBFBA2FA92F982F882790
:10081000820F911DA11DB11DBC01CD0142E0660FEB
:10082000771F881F991F4A95D1F708950F931F933B
:10083000CF93DF9300D0CDB7DEB701E08AE093E03D
:100840000E94D600892BA9F08AE093E00E94B400B0
:10085000182F89831A8241E050E0BE016F5F7F4FFD
:100860008DE295E00E949D011A3041F70093F80255
:10087000E5CF0F900F90DF91CF911F910F910895C9
:100880000E94E20081110C9416040895FC01848DED
:10089000DF01A80FB11DA35ABF4F2C91848D90E0AA
:1008A00001968F739927848FA689B7892C93A08985
:1008B000B1898C9180648C93938D848D981306C03C
:1008C0000288F389E02D80818F7D808308958F9247
:1008D0009F92AF92BF92CF92DF92EF92FF926B0105
:1008E0007C010E94F1034B015C01C114D104E104BD
:1008F000F104F1F00E94F103DC01CB0188199909A0
:10090000AA09BB09883E9340A105B10570F321E017
:10091000C21AD108E108F10888EE880E83E0981E1B
:10092000A11CB11CC114D104E104F10419F7DDCFFD
:10093000FF90EF90DF90CF90BF90AF909F908F90FF
:1009400008952FB7F894609102037091030380918A
:100950000403909105032FBF08951F920F920FB6C5
:100960000F9211242F933F938F939F93AF93BF9335
:100970008091020390910303A0910403B0910503B9
:100980003091010323E0230F2D3720F40196A11DA0
:10099000B11D05C026E8230F0296A11DB11D2093AD
:1009A00001038093020390930303A0930403B09385
:1009B00005038091060390910703A0910803B0916D
:1009C00009030196A11DB11D8093060390930703AF
:1009D000A0930803B0930903BF91AF919F918F91AA
:1009E0003F912F910F900FBE0F901F901895EF928F
:1009F000FF920F931F93CF93DF93CDB7DEB7689726
:100A00000FB6F894DEBF0FBECDBF07EA13E0E12CAE
:100A1000F12C8091F6029091F702E816F9060CF09D
:100A20004AC0F80144855585668577852AE0CE0160
:100A30000D960E947F024AE0B701CE0107960E9400
:100A4000AC0262ED71E0CE0101960E94F202BE019D
:100A5000695F7F4FCE0101960E942F0269ED71E020
:100A60000E941602B8010E942F026CED71E00E94F4
:100A70001602B8016A5F7F4F0E942F0262EE71E09A
:100A80000E941602BE01635F7F4F0E942F020E94E8
:100A9000410ACE0101960E947A02CE0107960E9479
:100AA0007A02CE010D960E947A02FFEFEF1AFF0A3A
:100AB000065E1F4FAECF6091F9027091FA024AE0D4
:100AC000CE0107960E94AC0269EE71E0CE0101965C
:100AD0000E94F202BE01695F7F4FCE0101960E9423
:100AE0002F020E94410ACE0101960E947A02CE0195
:100AF00007960E947A028EEF91E00E94790A89E1BE
:100B000092E00E94790A8BE292E00E94790A84E3E3
:100B100092E00E94790A4091000150910101609198
:100B20000201709103012AE0CE0143960E947F02E8
:100B30004091FB025091FC026091FD027091FE0217
:100B40002AE0CE010D960E947F020E94A10428EEA9
:100B500033E040E050E00E94550FBA01A9012AE0BD
:100B6000CE0107960E947F0262E572E0CE010196F7
:100B70000E94F202BE01695F7F4FCE0101960E9482
:100B80002F026DE572E00E941602BE01635F7F4F87
:100B90000E942F0269E672E00E941602BE016D5E9D
:100BA0007F4F0E942F020E94410ACE0101960E94AF
:100BB0007A02CE0107960E947A02CE010D960E941B
:100BC0007A02CE0143960E947A028EE792E00E945A
:100BD000790A68960FB6F894DEBF0FBECDBFDF91DD
:100BE000CF911F910F91FF90EF9008958F929F9258
:100BF000AF92BF92CF92DF92EF92FF920F931F932B
:100C0000CF93DF93CDB7DEB76E970FB6F894DEBF04
:100C10000FBECDBF5C01FC018480958065EF72E062
:100C2000CE0101960E94F20200E010E008151905BD
:100C300044F56801FFEFCF1ADF0A9601A801B5015C
:100C4000CE0107960E940703BE01695F7F4FCE0168
:100C500001960E94CB01CE0107960E947A0265E7B9
:100C600071E0CE0101960E947E01811121C069E2EE
:100C700071E0CE0101960E947E01811119C08601AA
:100C8000D5CFCE0101960E947A026E960FB6F894E7
:100C9000DEBF0FBECDBFDF91CF911F910F91FF90AF
:100CA000EF90DF90CF90BF90AF909F908F9008957E
:100CB000EE24E394EC0C8E2D0E945A0A65E771E055
:100CC000CE0101960E947E01FF24F3948111F12C44
:100CD0006F2D8E2D0E94A5036F2D70E04AE0CE018E
:100CE00049960E94AC024AE0B6016F5F7F4FCE0189
:100CF00043960E94AC024AE0B801CE010D960E94D4
:100D0000AC0263E972E0CE0107960E94F202BE01D6
:100D1000635F7F4FCE0107960E942F026CE772E05F
:100D20000E941602BE016D5E7F4F0E942F0268E98D
:100D300072E00E941602BE01675E7F4F0E942F0282
:100D40000E94410ACE0107960E947A02CE010D96BA
:100D50000E947A02CE0143960E947A02CE01499601
:100D60000E947A028CCFAF92BF92CF92DF92EF9225
:100D7000FF920F931F93CF93DF93CDB7DEB76E979C
:100D80000FB6F894DEBF0FBECDBF8C01FC01118AF7
:100D9000108A7C01F6E0EF0EF11C0E94A10424E60B
:100DA00030E040E050E00E94550FBA01A9012AE06E
:100DB000CE0101960E947F02BE016F5F7F4FCE0180
:100DC00007960E94D80261EA72E0CE0107960E945F
:100DD0001602B8010E942F026CED71E00E9416020B
:100DE000B7010E942F020E94410ACE0107960E947D
:100DF0007A02CE0101960E947A02B701CE0149968D
:100E00000E94D802AD8CBE8C65EF72E0CE01439695
:100E10000E94F20265EF72E0CE010D960E94F2028E
:100E20004AE060E070E0CE0107960E94AC026DEAF5
:100E300072E0CE0101960E94F202BE01675E7F4F12
:100E4000CE0101960E942F0268E972E00E9416020C
:100E5000BE01695F7F4F0E942F020E94410ACE01AE
:100E600001960E947A02CE0107960E947A0200E063
:100E700010E00A151B050CF05BC068018FEFC81A63
:100E8000D80A9601A801BE01675E7F4FCE01019688
:100E90000E940703BE016F5F7F4FCE0143960E9401
:100EA000CB01CE0101960E947A0265E771E0CE0186
:100EB00043960E947E018823C9F165EF72E0CE015E
:100EC0000D960E946302E12CF12CE016F10664F409
:100ED00041E050E06CEB72E0CE010D960E949D0166
:100EE000EFEFEE1AFE0AF1CF4AE060E070E0CE01CB
:100EF00001960E94AC024D815E8169817A81CE01AA
:100F00000D960E949D01CE0101960E947A02BE01BB
:100F1000635F7F4FCE0101960E94D802CE010196F9
:100F20000E94F605CE0101960E947A028601A1CFA9
:100F3000CE010D960E947A02CE0143960E947A025B
:100F4000CE0149960E947A028DE00E945A0A60E022
:100F50008DE00E94A5036E960FB6F894DEBF0FBE1B
:100F6000CDBFDF91CF911F910F91FF90EF90DF9058
:100F7000CF90BF90AF900895CF93DF93D82FC62F17
:100F800080E090E00E945512D81729F06D2F80E084
:100F900090E00E945D1281E090E00E945512C81717
:100FA00039F06C2F81E090E0DF91CF910C945D12CD
:100FB000DF91CF9108954F925F926F927F928F92BF
:100FC0009F92AF92BF92CF92DF92EF92FF920F93D8
:100FD0001F93CF93DF93CDB7DEB769970FB6F89421
:100FE000DEBF0FBECDBF8C0181E090E0F801918B98
:100FF000808B0E94A1046B017C01F801628B738BD2
:10100000848B958B2485358546855785A4E6B0E08D
:101010000E946B1246015701860E971EA81EB91E2C
:10102000868A978AA08EB18E7801F6E0EF0EF11CC9
:101030000E94A10424E6422E512C612C712CA301A4
:1010400092010E94550FBA01A9012AE0CE010E9625
:101050000E947F02BE01625F7F4FCE0144960E94D4
:10106000D8026EEB72E0CE0144960E941602B801DF
:101070000E942F026CED71E00E941602B7010E94DF
:101080002F026BEC72E00E9416026C01C501B401E4
:10109000A30192010E94550FCA01B9012AE08E01F5
:1010A0000F5F1F4FA8010E940912F8010190002054
:1010B000E9F73197AF01401B510BB801C6010E94FF
:1010C0009D01811103C0C6010E940402C6010E9455
:1010D000410ACE0144960E947A02CE010E960E94E9
:1010E0007A02B701C8010E94D802C8010E94F60521
:1010F000C8010E947A028DE00E945A0A61E08DE0E8
:101100000E94A50369960FB6F894DEBF0FBECDBF4F
:10111000DF91CF911F910F91FF90EF90DF90CF90D3
:10112000BF90AF909F908F907F906F905F904F9007
:101130000895EF92FF921F93CF93DF93CDB7DEB761
:101140002C970FB6F894DEBF0FBECDBFE090F9022A
:10115000F090FA024AE0B701CE0107960E94AC0275
:1011600066ED72E0CE0101960E94F202BE01695F57
:101170007F4FCE0101960E942F0265EB71E00E9425
:1011800016021AE11E9DB0011F9D700D11246955B4
:101190007C4F0E942F020E94410ACE0101960E94BC
:1011A0007A02CE0107960E947A022091F9023091CC
:1011B000FA02129FC001139F900D112489559C4F74
:1011C0000E94B3068091F9029091FA0201969093E1
:1011D000FA028093F90268EE73E080E090E00E94EA
:1011E0006704E090F902F090FA028091F602909183
:1011F000F702E816F9060CF041C04AE0B701CE014B
:1012000007960E94AC0264EE72E0CE0101960E9445
:10121000F202BE01695F7F4FCE0101960E942F024C
:1012200065EB71E00E9416021E9DB0011F9D700DBE
:10123000112469557C4F0E942F020E94410ACE0161
:1012400001960E947A02CE0107960E947A022091AE
:10125000F9023091FA02129FC001139F900D1124E0
:1012600089559C4F0E94DB076091F9027091FA0248
:101270008091FF02909100030E94BC072C960FB64C
:10128000F894DEBF0FBECDBFDF91CF911F91FF90CD
:10129000EF900895CF92DF92EF92FF92CF93DF937A
:1012A000CDB7DEB768970FB6F894DEBF0FBECDBFDF
:1012B0000E94A10428EEC22E23E0D22EE12CF12CB4
:1012C000A70196010E94550F8091000190910101A4
:1012D000A0910201B0910301820F931FA41FB51FBB
:1012E0008093FB029093FC02A093FD02B093FE0258
:1012F00081E090E0909300038093FF021092FA0245
:101300001092F9024AE060E070E0CE010D960E9472
:10131000AC020E94A10424E630E040E050E00E94CC
:10132000550FBA01A9012AE0CE0107960E947F025B
:1013300060E972E0CE0101960E94F202BE01695F8F
:101340007F4FCE0101960E942F0266EA71E00E9453
:101350001602BE01635F7F4F0E942F0265EB71E0B2
:101360000E94160267EA73E00E942F020E94410A5F
:10137000CE0101960E947A02CE0107960E947A025F
:10138000CE010D960E947A02409100015091010118
:1013900060910201709103012AE0CE0143960E9400
:1013A0007F024091FB025091FC026091FD0270911E
:1013B000FE022AE0CE010D960E947F020E94A10447
:1013C000A70196010E94550FBA01A9012AE0CE019A
:1013D00007960E947F0262E572E0CE0101960E94AC
:1013E000F202BE01695F7F4FCE0101960E942F027B
:1013F0006DE572E00E941602BE01635F7F4F0E949E
:101400002F0269E672E00E941602BE016D5E7F4FF8
:101410000E942F020E94410ACE0101960E947A0288
:10142000CE0107960E947A02CE010D960E947A02A2
:10143000CE0143960E947A022091F9023091FA027D
:101440004AE1429FC001439F900D112489559C4F52
:101450000E94DB076091F9027091FA028091FF020D
:10146000909100030E94BC0768960FB6F894DEBF07
:101470000FBECDBFDF91CF91FF90EF90DF90CF9067
:101480000895CF93DF93FC01448155816081718180
:101490008AE093E00E948900EC0142E050E063EFB3
:1014A00072E08AE093E00E9489008C0F9D1FDF911B
:1014B000CF91089590E0FC01EC55FF4F2491FC0181
:1014C000E057FF4F8491882399F090E0880F991F8F
:1014D000FC01EA57FF4FA591B491FC01E458FF4F7E
:1014E000859194918FB7F894EC91E22BEC938FBF98
:1014F0000895CF93DF93009779F0FC0101900020CD
:10150000E9F73197AF01481B590BBC018AE093E022
:101510000E948900EC0102C0C0E0D0E042E050E04F
:1015200063EF72E08AE093E00E9489008C0F9D1FB8
:10153000DF91CF910895CF93DF93209131053091C2
:101540003205232B79F0FC01C0912D05D0912E0599
:1015500060817181CE010E949211009719F08C1B5D
:101560009D0B02C08FEF9FEFDF91CF910895CF9336
:10157000DF93CDB7DEB768970FB6F894DEBF0FBE26
:10158000CDBF789484B5826084BD84B5816084BD0C
:1015900085B5826085BD85B5816085BD80916E0011
:1015A000816080936E001092810080918100826042
:1015B000809381008091810081608093810080917F
:1015C00080008160809380008091B100846080936E
:1015D000B1008091B00081608093B00080917A006A
:1015E000846080937A0080917A00826080937A0090
:1015F00080917A00816080937A0080917A0080687F
:1016000080937A001092C100E0911A03F0911B03BD
:1016100082E08083E0911603F09117031082E0913D
:101620001803F091190380E1808310922203E09166
:101630001E03F0911F0386E08083E0911C03F0916C
:101640001D03808180618083E0911C03F0911D0364
:10165000808188608083E0911C03F0911D0380816C
:1016600080688083E0911C03F0911D0380818F7D51
:1016700080836AE070E080E090E00E9467048AE185
:1016800091E00E94790A68EC70E08DE295E00E949A
:10169000EE0062E271E0CE0101960E94F202CE01FC
:1016A00001960E94F605CE0101960E947A026BE235
:1016B00071E087EA93E00E94630265EF72E08DEAD1
:1016C00093E00E9463028CE291E0A0E0B0E080939E
:1016D000B3039093B403A093B503B093B60368E348
:1016E00071E081EC93E00E94630264E471E087ECB6
:1016F00093E00E9463028AEA90E0A0E0B0E0809369
:10170000CD039093CE03A093CF03B093D0036DE7A6
:1017100071E08BED93E00E94630263E771E081EE7C
:1017200093E00E94630288EB9BE0A0E0B0E080932E
:10173000E7039093E803A093E903B093EA0368E416
:1017400071E085EF93E00E94630265E771E08BEF43
:1017500093E00E94630288E7C82ED12CE12CF12C83
:10176000C0920104D0920204E0920304F0920404B7
:1017700068E371E08FE094E00E94630264E971E045
:1017800085E194E00E94630280E590E0A0E0B0E093
:1017900080931B0490931C04A0931D04B0931E041B
:1017A00068E471E089E294E00E94630265E771E019
:1017B0008FE294E00E9463028DE790E0A0E0B0E049
:1017C0008093350490933604A0933704B093380483
:1017D00068E371E083E494E00E94630264E971E0ED
:1017E00089E494E00E9463028CE890E0A0E0B0E01D
:1017F00080934F0490935004A0935104B0935204EB
:1018000062E571E08DE594E00E9463026DE571E0B0
:1018100083E694E00E94630284E893E0A0E0B0E0F5
:101820008093690490936A04A0936B04B0936C0452
:1018300064E671E087E794E00E94630261E771E08B
:101840008DE794E00E9463028CEF98E0A0E0B0E0A6
:101850008093830490938404A0938504B0938604BA
:1018600068E371E081E994E00E94630264E471E05E
:1018700087E994E00E9463028FE090E0A0E0B0E08E
:1018800080939D0490939E04A0939F04B093A00422
:1018900067E771E08BEA94E00E9463026AE871E016
:1018A00081EB94E00E94630280E29EE4A0E0B0E05D
:1018B0008093B7049093B804A093B904B093BA048A
:1018C00068E471E085EC94E00E94630262E971E0F3
:1018D0008BEC94E00E94630287E090E0A0E0B0E02F
:1018E0008093D1049093D204A093D304B093D404F2
:1018F0006DE771E08FED94E00E9463026AE871E0A9
:1019000085EE94E00E94630288E097E0A0E0B0E0FA
:101910008093EB049093EC04A093ED04B093EE0459
:1019200068E471E089EF94E00E94630265E771E08A
:101930008FEF94E00E94630283EA90E0A0E0B0E0C1
:101940008093050590930605A0930705B0930805BD
:101950008EE090E09093F7028093F6021092FA02E4
:101960001092F90280EB9AE9A0E0B0E080930001C8
:1019700090930101A0930201B0930301C092FB0276
:10198000D092FC02E092FD02F092FE020E94F70467
:101990001AE198E7892E912CA12CB12C64E670E015
:1019A00080E090E00E9467040E94A1046B3F7242B5
:1019B00082499F4FF8F08091FF0290910003892B9C
:1019C000C9F48091FB029091FC02A091FD02B091BC
:1019D000FE0289379105A105B10508F445C0809242
:1019E000FB029092FC02A092FD02B092FE020E94C5
:1019F000F7043AC00E94A1046B017C012091FB0214
:101A00003091FC024091FD025091FE02A8EEB3E03D
:101A10000E946B126C157D058E059F0538F4809130
:101A2000FF0290910003892B09F4C4C18091F9024F
:101A30009091FA02189FF001199FF00D1124E955B9
:101A4000FC4F20893189232B21F41092000310923E
:101A5000FF022091FF02309100032130310539F05F
:101A60000091F802011125C00E94400497CF189FF1
:101A70009001199F300D1124C90189559C4F7C019B
:101A8000FC0142885388648875880E94A10464150B
:101A900075058605970520F3F701C688D788E08C81
:101AA000F18C0E94A104C616D706E806F906C0F616
:101AB00084C167E971E0CE0101960E94F2026DE2F5
:101AC00075E0CE0101960E942F020E94410ACE01CC
:101AD00001960E947A0264EA71E0CE0101960E94AA
:101AE000F202CE0101960E949B0A7C01CE01019672
:101AF0000E947A02EF2809F07CC0209131053091D4
:101B0000320541E050E06DE275E0CE0143960E945F
:101B100007038B899C89009729F00E94AC116B0107
:101B20007C0103C0C12CD12C7601D092FA02C09264
:101B3000F9028091F6029091F702C816D9060CF0CE
:101B400053C04AE0B601CE010D960E94AC020E943D
:101B5000A10424E630E040E050E00E94550FBA01B5
:101B6000A9012AE0CE0107960E947F0260E972E097
:101B7000CE0101960E94F202BE01695F7F4FCE0145
:101B800001960E942F0266EA71E00E941602BE01D1
:101B9000635F7F4F0E942F0265EB71E00E94160287
:101BA0001C9DB0011D9D700D112469557C4F0E9434
:101BB0002F020E94410ACE0101960E947A02CE01B4
:101BC00007960E947A02CE010D960E947A02209119
:101BD000F9023091FA02129FC001139F900D112457
:101BE00089559C4F0E94DB07CE0143960E947A02E2
:101BF000D8C069EB71E0CE0101960E94F202CE01DD
:101C000001960E949B0A7C01CE0101960E947A02F5
:101C1000EF2819F40E944A09C4C06FE272E0CE01B5
:101C200007960E94F202CE0107960E949B0A892B1A
:101C3000A1F06DEB71E0CE0101960E94F202CE019F
:101C400001960E949B0AFF24F394892B09F0F12C42
:101C5000CE0101960E947A0201C0F02ECE010796B5
:101C60000E947A02FF2019F00E94F7049AC06FEBDD
:101C700071E0CE0107960E94F202CE0107960E9403
:101C80009B0A892B91F06BEB71E0CE0101960E94CB
:101C9000F202CE0101960E949B0A01E0892B09F015
:101CA00000E0CE0101960E947A02CE0107960E94C2
:101CB0007A02002319F00E94990873C02091F9025A
:101CC0003091FA02129FC001139F900D1124895583
:101CD0009C4F0E94B306109200031092FF02E09006
:101CE000F902F090FA024AE0B701CE0101960E9493
:101CF000AC020E94A10424E630E040E050E00E94E3
:101D0000550FBA01A9012AE0CE0107960E947F0271
:101D100060E972E0CE010D960E94F202BE01695F99
:101D20007F4FCE010D960E942F0264EC71E00E945D
:101D30001602BE016F5F7F4F0E942F0265EB71E0BC
:101D40000E9416021E9DB0011F9D700D1124695541
:101D50007C4F0E942F020E94410ACE010D960E94E4
:101D60007A02CE0107960E947A02CE0101960E9465
:101D70007A0262E271E0CE0101960E94F202CE0187
:101D800001960E94F605CE0101960E947A026091AA
:101D9000F9027091FA028091FF02909100030E9473
:101DA000BC0765EF72E08DE295E00E94630210923D
:101DB000F8025ACE0E944A0939CE0E94990850CEA4
:101DC000CF93DF93CDE2D5E06A97CE0106960E94CD
:101DD0007A02CE010E947A0283E0C73AD807A1F7BF
:101DE0008DE295E0DF91CF910C947A02CF93DF934F
:101DF00010920D0310920C0388EE93E0A0E0B0E087
:101E000080930E0390930F03A0931003B0931103DC
:101E10008EE091E090930B0380930A0385EC90E0B1
:101E2000909317038093160384EC90E0909319032A
:101E30008093180380EC90E090931B0380931A0327
:101E400081EC90E090931D0380931C0382EC90E062
:101E500090931F0380931E0386EC90E090932103E0
:101E600080932003109223031092240310922503E1
:101E70001092260365EF72E08DE295E00E94F20277
:101E8000C7EAD3E065EF72E0CE010E94F20265EF8F
:101E900072E0CE0106960E94F2026A9685E0CD328B
:101EA000D80781F7DF91CF910895A1E21A2EAA1BDE
:101EB000BB1BFD010DC0AA1FBB1FEE1FFF1FA217FA
:101EC000B307E407F50720F0A21BB30BE40BF50BF7
:101ED000661F771F881F991F1A9469F76095709580
:101EE000809590959B01AC01BD01CF010895EE0F47
:101EF000FF1F0590F491E02D0994CF93DF9382307A
:101F0000910510F482E090E0E0913505F0913605FE
:101F100020E030E0C0E0D0E0309711F14081518105
:101F200048175907C0F04817590761F48281938117
:101F3000209719F09B838A832BC09093360580935A
:101F4000350526C02115310519F04217530718F43D
:101F50009A01BE01DF01EF010280F381E02DDCCFA9
:101F60002115310509F1281B390B2430310590F476
:101F700012968D919C9113976115710521F0FB01CB
:101F80009383828304C09093360580933505FD01C9
:101F9000329644C0FD01E20FF31F819391932250CA
:101FA00031092D933C933AC020913305309134058B
:101FB000232B41F420910601309107013093340521
:101FC000209333052091040130910501211531053D
:101FD00041F42DB73EB74091080150910901241BEF
:101FE000350BE0913305F0913405E217F307A0F4C7
:101FF0002E1B3F0B2817390778F0AC014E5F5F4F5F
:102000002417350748F04E0F5F1F50933405409357
:1020100033058193919302C0E0E0F0E0CF01DF91BE
:10202000CF9108950F931F93CF93DF93009709F4F7
:102030008CC0FC01329713821282009135051091F9
:1020400036050115110581F420813181820F931F1E
:1020500020913305309134052817390779F5F0932D
:102060003405E093330571C0D80140E050E0AE176D
:10207000BF0750F412962D913C911397AD01211595
:10208000310509F1D901F3CF9D01DA0133832283B0
:1020900060817181860F971F8217930769F4EC01A5
:1020A00028813981260F371F2E5F3F4F31832083D0
:1020B0008A819B8193838283452B29F4F093360593
:1020C000E093350542C01396FC93EE931297ED0111
:1020D000499159919E01240F351FE217F30771F4BE
:1020E00080819181840F951F029611969C938E9307
:1020F0008281938113969C938E931297E0E0F0E097
:10210000D80112968D919C911397009719F0F801C0
:102110008C01F6CF8D919C9198012E5F3F4F820FDD
:10212000931F20913305309134052817390769F43E
:10213000309729F4109236051092350502C01382AB
:1021400012821093340500933305DF91CF911F91D4
:102150000F910895A0E0B0E0E0EBF0E10C947A126A
:10216000EC01009721F4CB010E947D0FB8C0FC0167
:10217000E60FF71F9C0122503109E217F30708F41C
:10218000ACC0D9010D911C91119706171707B0F03B
:102190000530110508F49FC0C801049786179707FA
:1021A00008F499C002501109061B170B01931193F3
:1021B0006D937C93CF010E9412108DC05B01A01A19
:1021C000B10A4C01800E911EA0913505B0913605E3
:1021D00040E050E0E12CF12C109709F44AC0A8151A
:1021E000B905D1F56D907C901197630182E0C80E1E
:1021F000D11CCA14DB0480F1A3014A195B096A01EE
:1022000082E0C80ED11C1296BC9012971396AC9126
:10221000B5E0CB16D10440F0B282A3835183408352
:10222000D9016D937C930AC00E5F1F4FC301800FCD
:10223000911FF90191838083EB2DFA2FE114F104B2
:1022400031F0D7011396FC93EE93129744C0F093AC
:102250003605E09335053FC08D919C911197481745
:10226000590708F4AC017D0112960D90BC91A02D88
:10227000B3CF809133059091340588159905E1F429
:1022800046175707C8F48091040190910501009703
:1022900041F48DB79EB74091080150910901841B0C
:1022A000950BE817F907C8F4F0933405E09333056C
:1022B000F901718360830FC0CB010E947D0F7C0107
:1022C000009759F0A801BE010E947911CE010E9429
:1022D0001210C70104C0CE0102C080E090E0CDB76B
:1022E000DEB7EEE00C94961281E090E0F8940C9446
:1022F000BC12FB01DC0102C001900D924150504024
:10230000D8F70895FB01DC018D910190801901102F
:10231000D9F3990B0895FB01DC0101900D92002087
:10232000E1F70895FB0151915523A9F0BF01DC01AC
:102330004D9145174111E1F759F4CD01019000206D
:1023400049F04D9140154111C9F3FB014111EFCF07
:1023500081E090E0019708951F93FC019927882759
:10236000BC01E89411911032E9F3193010F01E30DD
:10237000C8F31B3251F01D3249F4689406C00E9424
:10238000E911610F711D811D911D119110531A30BA
:10239000B0F33EF490958095709561957F4F8F4F87
:1023A0009F4F1F9108954532510520F4423010F09F
:1023B0000C94DE11FB011082CB010895BB274A303B
:1023C00031F4992322F4BDE2909581959F4F0C94AE
:1023D0002C12592F482F372F262F660F771F881F53
:1023E000991F660F771F881F991F620F731F841F25
:1023F000951F660F771F881F991F08952532310595
:1024000020F4223010F00C940912FA011082CA0153
:102410000895BB27FA01A62F621771058105910562
:10242000330B30FB66F0AA27660F771F881F991FB2
:10243000AA1FA21710F0A21B63953850A9F7A05D40
:10244000AA3308F0A95DA19336F7B111B1931082B8
:10245000CA010C944512BB27FB015527AA27880FF8
:10246000991FAA1FA41710F0A41B83955051B9F708
:10247000A05DAA3308F0A95DA193009779F7B11187
:10248000B1931192CB010C944512DC01FC01672F32
:1024900071917723E1F7329704C07C916D9370833B
:1024A0006291AE17BF07C8F30895F999FECF92BDA8
:1024B00081BDF89A992780B50895262FF999FECF06
:1024C0001FBA92BD81BD20BD0FB6F894FA9AF99A51
:1024D0000FBE019608950E94AD12A59F900DB49F66
:1024E000900DA49F800D911D112408952F923F926D
:1024F0004F925F926F927F928F929F92AF92BF9214
:10250000CF92DF92EF92FF920F931F93CF93DF93BF
:10251000CDB7DEB7CA1BDB0B0FB6F894DEBF0FBE1C
:10252000CDBF09942A88398848885F846E847D8469
:102530008C849B84AA84B984C884DF80EE80FD806B
:102540000C811B81AA81B981CE0FD11D0FB6F894E1
:10255000DEBF0FBECDBFED010895A29FB001B39FB6
:10256000C001A39F700D811D1124911DB29F700D9C
:10257000811D1124911D089510E0CDE5D0E004C027
:10258000FE010E94770F2196CE35D107C9F7F89446
:02259000FFCF7B
:1025920080969800000037058000000000001501B9
:1025A2008900D600B400C8005C0153746172743AA9
:1025B20020003030303030303030005761697420C4
:1025C20074696D656F7574004C6F70617465206419
:1025D2006F776E00313131004C6F70617465207518
:1025E20070004D6F656D206C6F746F6B002F2F3113
:1025F2002F2F31004B616E616C697A616369796179
:10260200002F2F2F2F310046616E202B20526F7426
:10261200617465206C6F746F6B002F2F31312F2F17
:102622003100312F31310047657420737472696E45
:10263200673A200073003A205374617274207374F5
:1026420065703A2000202D200072756E0068006EC1
:10265200657874003A2053746F7020737465703A11
:102662002000537465703A20002E20002070696E9D
:102672003A002074696D653A000A0D546F74616CFA
:10268200206C6F61642073746570733A2000436F2D
:102692006D6D616E643A2072756E202D2072756EBA
:1026A2002070726F6772616D007323202D20737426
:1026B200617274202320737465700068202D206875
:1026C200656C70006E7C6E657874202D206E657866
:1026D200742073746570206F662070726F67726108
:1026E2006D004375722054696D653A2000204E6575
:1026F20078742072756E3A200020526574727920C7
:102702006576657279207365636F6E643A00616EF7
:1027120079206B6579202D2073746F7020616C6C49
:102722000A0D0070696E20002073657420746F209A
:10273200002053746F7020737465703A005365748F
:1027420020746F2073746174653A20002D00205349
:102752007461727420737465703A002053746F70E0
:1027620020696E3A20000A0D53746F7020737465ED
:10277200703A20000A0D537461727420737465708C
:062782003A20000D0A00E0
:107800000C94343C0C94513C0C94513C0C94513CE1
:107810000C94513C0C94513C0C94513C0C94513CB4
:107820000C94513C0C94513C0C94513C0C94513CA4
:107830000C94513C0C94513C0C94513C0C94513C94
:107840000C94513C0C94513C0C94513C0C94513C84
:107850000C94513C0C94513C0C94513C0C94513C74
:107860000C94513C0C94513C11241FBECFEFD8E036
:10787000DEBFCDBF11E0A0E0B1E0ECE9FFE702C060
:1078800005900D92A230B107D9F712E0A2E0B1E065
:1078900001C01D92AD30B107E1F70E942D3D0C945F
:1078A000CC3F0C94003C982F959595959595959582
:1078B000905D8F708A307CF0282F295A8091C0000B
:1078C00085FFFCCF9093C6008091C00085FFFCCF60
:1078D0002093C6000895282F205DF0CF982F809127
:1078E000C00085FFFCCF9093C6000895EF92FF92F1
:1078F0000F931F93EE24FF2487018091C00087FD22
:1079000017C00894E11CF11C011D111D81E4E8164B
:1079100082E4F8068FE0080780E0180770F3E09132
:107920000401F091050109958091C00087FFE9CF1E
:107930008091C6001F910F91FF90EF9008950E94D3
:10794000763C982F8091C00085FFFCCF9093C600B5
:1079500091362CF490330CF09053892F089597555D
:10796000892F08951F930E949F3C182F0E949F3CCF
:107970001295107F810F1F9108951F93182F882350
:1079800021F00E94763C1150E1F71F9108951F935A
:10799000182F0E94763C803249F0809103018F5F5E
:1079A000809303018530C1F01F9108958091C0003C
:1079B00085FFFCCF84E18093C6008091C00085FFE5
:1079C000FCCF1093C6008091C00085FFFCCF80E102
:1079D0008093C6001F910895E0910401F091050184
:1079E00009951F9108950E94763C803241F0809164
:1079F00003018F5F80930301853081F008958091AA
:107A0000C00085FFFCCF84E18093C6008091C00058
:107A100085FFFCCF80E18093C6000895E0910401CA
:107A2000F09105010995089540E951E08823A1F0FE
:107A30002D9A28EE33E0FA013197F1F721503040CA
:107A4000D1F72D9828EE33E0FA013197F1F7215064
:107A50003040D1F7815061F708953F924F925F9285
:107A60006F927F928F929F92AF92BF92CF92DF924E
:107A7000EF92FF920F931F93CF93DF93000080E16B
:107A80008093C4001092C50088E18093C10086E015
:107A90008093C2005098589A259A81E00E94143D24
:107AA00024E1F22E9EE1E92E85E9D82E0FE0C02ECA
:107AB00010E1B12EAA24A394B1E49B2EA6E58A2E50
:107AC000F2E57F2EE0E26E2E79E4572E63E5462E36
:107AD00050E5352E0E94763C8033B1F18133B9F107
:107AE000803409F46FC0813409F476C0823409F41B
:107AF00085C0853409F488C0803531F1823521F1A3
:107B0000813511F1853509F485C0863509F48DC0BC
:107B1000843609F496C0843709F403C1853709F423
:107B200072C1863709F466C0809103018F5F80932C
:107B30000301853079F6E0910401F0910501099582
:107B40000E94763C803351F60E94F33CC3CF0E94E2
:107B5000763C803249F78091C00085FFFCCFF092DF
:107B6000C6008091C00085FFFCCF9092C600809136
:107B7000C00085FFFCCF8092C6008091C00085FFC9
:107B8000FCCF7092C6008091C00085FFFCCF609250
:107B9000C6008091C00085FFFCCF5092C600809146
:107BA000C00085FFFCCF4092C6008091C00085FFD9
:107BB000FCCF3092C6008091C00085FFFCCFB09210
:107BC000C60088CF0E94763C863808F4BDCF0E945C
:107BD000763C0E94F33C7ECF0E94763C803809F4CC
:107BE0009CC0813809F40BC1823809F43CC1883942
:107BF00009F48FC080E00E94C73C6CCF84E10E94F2
:107C0000BD3C0E94F33C66CF85E00E94BD3C0E94D3
:107C1000F33C60CF0E94763C809306010E94763C44
:107C2000809307010E94F33C55CF0E94763C80333D
:107C300009F41DC183E00E94BD3C80E00E94C73C66
:107C400049CF0E94763C809309020E94763C809343
:107C5000080280910C028E7F80930C020E94763C79
:107C6000853409F415C18091080290910902892B8D
:107C700089F000E010E00E94763CF801E85FFE4FDA
:107C800080830F5F1F4F80910802909109020817AF
:107C9000190788F30E94763C803209F045CF809125
:107CA0000C0280FF01C16091060170910701660F0F
:107CB000771F7093070160930601A0910802B091AD
:107CC00009021097C9F0E8E0F1E09B01AD014E0F09
:107CD0005F1FF999FECF32BD21BD819180BDFA9A17
:107CE000F99A2F5F3F4FE417F50799F76A0F7B1F4B
:107CF00070930701609306018091C00085FFFCCF5F
:107D0000F092C6008091C00085FFFCCFB092C60003
:107D1000E1CE83E00E94C73CDDCE82E00E94C73CFA
:107D2000D9CE0E94763C809309020E94763C8093D3
:107D300008028091060190910701880F991F909386
:107D40000701809306010E94763C853409F4A6C0A1
:107D500080910C028E7F80930C020E94763C8032D0
:107D600009F0B8CE8091C00085FFFCCFF092C6002C
:107D7000609108027091090261157105B9F140E046
:107D800050E080910C02A82FA170B82FB27011C0E2
:107D9000BB2309F45CC0E0910601F0910701319624
:107DA000F0930701E09306014F5F5F4F46175707B7
:107DB000E8F4AA2369F3F999FECF209106013091E6
:107DC000070132BD21BDF89A90B58091C00085FFB2
:107DD000FCCF9093C6002F5F3F4F30930701209355
:107DE00006014F5F5F4F4617570718F38091C00099
:107DF00085FDE5CE8091C00085FFF8CFE0CE81E023
:107E00000E94C73C67CE0E94763C803209F08CCE3F
:107E10008091C00085FFFCCFF092C6008091C00029
:107E200085FFFCCFE092C6008091C00085FFFCCFAB
:107E3000D092C6008091C00085FFFCCFC092C600E2
:107E40008091C00085FFFCCFB092C60043CEE09188
:107E50000601F091070194918091C00085FFFCCF4D
:107E60009093C6009CCF80E10E94C73C33CE0E9415
:107E7000763C0E94763C182F0E94763C112309F430
:107E800083C0113009F484C08FE00E94C73C22CE29
:107E900080910C02816080930C02E5CE80910C02EF
:107EA000816080930C0259CF809107018823880F4D
:107EB000880B8A2180930B02809106019091070123
:107EC000880F991F90930701809306018091080203
:107ED00080FF09C080910802909109020196909359
:107EE000090280930802F894F999FECF1127E091D6
:107EF0000601F0910701C8E0D1E08091080290915D
:107F00000902103091F40091570001700130D9F34B
:107F100003E000935700E89500915700017001308D
:107F2000D9F301E100935700E89509901990009169
:107F3000570001700130D9F301E000935700E89534
:107F40001395103498F011270091570001700130FB
:107F5000D9F305E000935700E895009157000170B0
:107F60000130D9F301E100935700E895329602976A
:107F700009F0C7CF103011F00296E5CF112480919F
:107F8000C00085FFB9CEBCCE8EE10E94C73CA2CD19
:0C7F900085E90E94C73C9ECDF894FFCF0D
:027F9C00800063
:040000030000780081
:00000001FF
